{
  "_format": "hh-sol-artifact-1",
  "contractName": "Whitelist",
  "sourceName": "contracts/Whitelist.sol",
  "abi": [
    {
      "inputs": [
        {
          "internalType": "uint8",
          "name": "_maxWhiteListedAddresses",
          "type": "uint8"
        }
      ],
      "stateMutability": "nonpayable",
      "type": "constructor"
    },
    {
      "inputs": [],
      "name": "addAddressToWhitelist",
      "outputs": [],
      "stateMutability": "nonpayable",
      "type": "function"
    },
    {
      "inputs": [],
      "name": "maxWhiteListedAddresses",
      "outputs": [
        {
          "internalType": "uint8",
          "name": "",
          "type": "uint8"
        }
      ],
      "stateMutability": "view",
      "type": "function"
    },
    {
      "inputs": [],
      "name": "numAddressesWhitelisted",
      "outputs": [
        {
          "internalType": "uint8",
          "name": "",
          "type": "uint8"
        }
      ],
      "stateMutability": "view",
      "type": "function"
    },
    {
      "inputs": [
        {
          "internalType": "address",
          "name": "",
          "type": "address"
        }
      ],
      "name": "whiteListedAddresses",
      "outputs": [
        {
          "internalType": "bool",
          "name": "",
          "type": "bool"
        }
      ],
      "stateMutability": "view",
      "type": "function"
    }
  ],
  "bytecode": "0x608060405234801561001057600080fd5b506040516105bc3803806105bc83398181016040528101906100329190610067565b806000806101000a81548160ff021916908360ff160217905550506100b4565b6000815190506100618161009d565b92915050565b60006020828403121561007957600080fd5b600061008784828501610052565b91505092915050565b600060ff82169050919050565b6100a681610090565b81146100b157600080fd5b50565b6104f9806100c36000396000f3fe608060405234801561001057600080fd5b506004361061004c5760003560e01c806303108fe4146100515780634011d7cd1461006f5780638e7314d91461008d578063d8e773a214610097575b600080fd5b6100596100c7565b604051610066919061038a565b60405180910390f35b6100776100d8565b604051610084919061038a565b60405180910390f35b6100956100eb565b005b6100b160048036038101906100ac91906102a2565b61026d565b6040516100be919061032f565b60405180910390f35b60008054906101000a900460ff1681565b600260009054906101000a900460ff1681565b600160003373ffffffffffffffffffffffffffffffffffffffff1673ffffffffffffffffffffffffffffffffffffffff16815260200190815260200160002060009054906101000a900460ff1615610178576040517f08c379a000000000000000000000000000000000000000000000000000000000815260040161016f9061036a565b60405180910390fd5b60008054906101000a900460ff1660ff16600260009054906101000a900460ff1660ff16106101dc576040517f08c379a00000000000000000000000000000000000000000000000000000000081526004016101d39061034a565b60405180910390fd5b60018060003373ffffffffffffffffffffffffffffffffffffffff1673ffffffffffffffffffffffffffffffffffffffff16815260200190815260200160002060006101000a81548160ff0219169083151502179055506002600081819054906101000a900460ff168092919061025290610401565b91906101000a81548160ff021916908360ff16021790555050565b60016020528060005260406000206000915054906101000a900460ff1681565b60008135905061029c816104ac565b92915050565b6000602082840312156102b457600080fd5b60006102c28482850161028d565b91505092915050565b6102d4816103c8565b82525050565b60006102e76011836103a5565b91506102f28261045a565b602082019050919050565b600061030a601b836103a5565b915061031582610483565b602082019050919050565b610329816103f4565b82525050565b600060208201905061034460008301846102cb565b92915050565b60006020820190508181036000830152610363816102da565b9050919050565b60006020820190508181036000830152610383816102fd565b9050919050565b600060208201905061039f6000830184610320565b92915050565b600082825260208201905092915050565b60006103c1826103d4565b9050919050565b60008115159050919050565b600073ffffffffffffffffffffffffffffffffffffffff82169050919050565b600060ff82169050919050565b600061040c826103f4565b915060ff8214156104205761041f61042b565b5b600182019050919050565b7f4e487b7100000000000000000000000000000000000000000000000000000000600052601160045260246000fd5b7f57686974656c6973742069732066756c6c000000000000000000000000000000600082015250565b7f4164647265737320616c72656164792077686974656c69737465640000000000600082015250565b6104b5816103b6565b81146104c057600080fd5b5056fea26469706673582212206b83e377128fbd3e0ca9e3ddb578ef8fc368dac9b92c64a2329188f040213f0064736f6c63430008040033",
  "linkReferences": {},
  "deployedLinkReferences": {}
}